:1000000000308A00AF280000A10183160616831273
:10001000061A2114831686168312861AA1148316D3
:1000200006178312061B2115831686178312861B5B
:10003000A1152108F80000342908F8012802031846
:1000400024282808F7003028F7010830AA00A80D56
:10005000F70D290877020318F700F80DAA0B2728D7
:1000600000342030231E3030A4002208F700A21FE5
:100070004028F709F70A7708A2002D30A400A3173B
:100080002208A8006430A9001C207708A2003030A4
:100090007807A5002208A8000A30A9001C203030EB
:1000A0007707A70030307807A6002408F700A31DC3
:1000B0005B28A31F2311231A6828A31F8328231951
:1000C00083287708A500A31883287708A60083282B
:1000D00030302502031D83287708A5002030A400B6
:1000E000A31D76282311A314A31FA31030302602CA
:1000F000031D83287708A6002030A500A31D7628BD
:10010000A310A31F2310231D892824080C1E862852
:100110009900A31C8F2825080C1E8C289900231CED
:10012000952826080C1E9228990027080C1E962850
:100130009900CF2821308400831300080319AE28CA
:100140000130F800F701F70BA328F80BA2284A307A
:10015000F700F70BA928AC28800BA028E028840121
:1001600083131F30830583168E1519309900A23032
:10017000980090308312980007309F00F03066009E
:100180000420F8080319E12804207808A100780861
:100190000C1EC8289900A2001F30A30031280A3085
:1001A0000C1ED02899000D300C1ED4289900042074
:1001B00083168501831278088500FA30A1009A28F9
:0601C000C028C028630006
:02400E00713F00
:00000001FF
;PIC16F628A
